:020000020000FC
:1000000075C11895189518951895189518951895FF
:1000100018951895B2C01895189518951895C19807
:10002000B99A0FBC0EBC772701E600BF02E007BDFE
:1000300007B500FFFDCF06E007BD089534B045B019
:10004000583019F403E007B904C05A3011F402E043
:1000500007B9369A503031F0593030F0593011F03C
:100060005A3021F05395089502D1FCCF13D15FEFA0
:10007000F9CFF89408E104BBBC98BB98552706E873
:1000800006B903E007B9E3E7F0E00BD03092660071
:100090004092670002E007B9E8E6F0E002D0349A47
:1000A00008950AE00F93EF93FF93369A3699FECFA7
:1000B00034B045B00CD0FF91EF910F910A9591F7B4
:1000C0000895F89400926800009273000895EF93E9
:1000D000FF930191102F110FE10FF01D319240821B
:1000E0000395053009F40027FF91EF91019305E096
:1000F0008824992431904190830C941C0A95D1F75F
:1001000005E0A02EBB2403D0382C492C08953324BD
:10011000441801E1881C991C0A9541F4B694A794EF
:100120003A144B0410F0810C901C0895331C441CAD
:100130003A184B0820F43A0C4B1C8894EBCF0894E7
:10014000E9CF01E80CBD02E00ABD03E003BF02BE37
:100150000DE709BD00E109BFCC24089503E0902E0E
:1001600008EE802EBB24A0906000D1DFD82C08952B
:10017000F5DFED2C00E00CBD08952FB67068EA9411
:1001800011F02FBE1895ED2C6C1102C02FBE1895E2
:10019000C61618F0CA942FBE1895C3942FBE189592
:1001A00005E0B02E009160000FD0009161000CD0EE
:1001B0000091620009D030D000110895BA94A32CA8
:1001C000F8944AD0789408953FD0A01629F0BA94B4
:1001D0000A2DF89441D0789408951ED001110CD0C6
:1001E00005E0B02E31D0A09260002ED0A092610028
:1001F0002BD0A0926200089505E0B02E05E0A02E5D
:100200002BD00AE0A02E28D008E7A02E25D004D0BD
:10021000BA94A32C21D0089505E0B02E03E0402E1F
:100220000CE8332411D018E03A2430FA3A24A6948A
:1002300036940EF430261A95B9F74A9499F701E0EE
:1002400003D03A1000270895E199FECF0FBABEBA45
:10025000E09AADB2B3940895E199FECFE598E498A1
:100260000FBABEBAADBAE29AE19AB3940895E8E63D
:10027000F0E02DDF06E0330C441C0A95E1F7832CF7
:10028000942C07E1A02EBB2442DF80926300909261
:1002900064000895E3E7F0E01ADF80906600909034
:1002A00067003818490810F4382C492C06E0330C44
:1002B000441C0A95E1F7832C942C02EFA02EBB245A
:1002C00026DF80926500089577FF0BC07F771EB50B
:1002D000009163000C1529F028F41F3F11F01395CD
:1002E0001EBD08951030E9F31A95FACFF894002452
:1002F00011241394662700E806BD06BC02E00EBF79
:100300000FE50DBF6ADF8BDEDCDEB3DE1ADF30DF28
:0E031000369A78943699FECF91DED6DFFBCF79
:00000001FF
