:020000020000FC
:100000005CC1189518951895189518951895189518
:10001000189518957CC01895189518951895C1983D
:10002000B99A0FBC0EBC662701E600BF02E007BD0F
:1000300007B500FFFDCF06E007BD089534B045B019
:10004000483019F403E007B904C04A3011F402E063
:1000500007B9369A403031F0493030F0493011F06C
:100060004A3021F043950895EFD0FCCFFDD04FEFFB
:10007000F9CFF894BC98BB98442706E806B903E08A
:1000800007B90AE0369A3699FECF34B045B00A95E2
:10009000C9F7309266004092670002E007B9349ACF
:1000A00008953324441801E1881C991C0A9541F4F1
:1000B000B694A7943A144B0410F0810C901C089548
:1000C000331C441C3A184B0820F43A0C4B1C8894FF
:1000D000EBCF0894E9CF01E80CBD02E00ABD03E0D4
:1000E00003BF02BE0DE709BD00E109BFCC2408959E
:1000F00003E0902E08EE802EBB24A0906000D1DF9C
:10010000D82C0895F5DFED2C00E00CBD08952FB636
:100110006068EA9411F02FBE1895ED2C5C1102C0B6
:100120002FBE1895C51618F0CA942FBE1895C39403
:100130002FBE1895C09811E008E0302E402E502EAA
:10014000F89408EC000FC09A10F400000000C0986A
:100150003A94C1F700E0000F16BB18F4000000004D
:10016000000016BB4A94B9F7C09A000000000000D6
:10017000C0980000C09A0000C09800000000000075
:10018000C09A0000C098000000000000C09A000063
:10019000C098000000000000C09A0000C098000055
:1001A00000000000C09A0000C0980000000000009D
:1001B000C09A0000C098000000000000C09A000033
:1001C000C0980000000000000895009268000092AE
:1001D000690000926A00AECF0FEF009368000092B2
:1001E000690000926A00A6CF01E0009368000093C6
:1001F000690000926A009ECF0FEF009268000092A3
:10020000690000936A0096CF0FEF00936800009397
:10021000690000936A008ECF0FEF00936800009290
:10022000690000936A0086CF04E60093680000939B
:10023000690000926A007ECF0FEF00926800009381
:10024000690000936A0076CF06E0330C441C0A95DF
:10025000E1F7832C942C07E1A02EBB2422DF8092AF
:10026000630090926400089580906600909067000B
:100270003818490810F4382C492C06E0330C441C7B
:100280000A95E1F7832C942C02EFA02EBB2409DF02
:1002900080926500089567FF0BC06F771EB50091CF
:1002A00063000C1529F028F41F3F11F013951EBDB3
:1002B00008951030E9F31A95FACFF894BA9AC29AD1
:1002C000B89A002411241394552700E806BD06BCF3
:1002D00002E00EBF0FE50DBFA2DECBDEFCDE12DFBB
:1002E000369A789472DF3699FECFA8DED4DFFBCF42
:00000001FF
