:020000020000FC
:10000000A3C11895189518951895189518951895D1
:1000100018951895B6C01895189518951895C19803
:10002000B99A0FBC0EBC5F7701E600BF02E007BDC6
:1000300007B500FFFDCF06E007BD08950EB50030FF
:1000400011F00A950EBD089557FF06C05F771EB5E3
:100050001F3F11F013951EBD089534B045B0330C09
:10006000441C483019F403E007B904C04A3011F4C5
:1000700002E007B9369A403031F0493030F049306B
:1000800011F04A3021F043950895E3D0FCCFF4D02D
:100090004FEFF9CFF894BC98BB98442706E806B90F
:1000A00003E007B9E1E7F0E00BD030926400409242
:1000B000650002E007B9E6E6F0E002D0349A089560
:1000C0000AE00F93EF93FF93369A3699FECF34B040
:1000D00045B0330C441C0CD0FF91EF910F910A9561
:1000E00081F70895F89400926600009271000895D7
:1000F000EF93FF930191102F110FE10FF01D31923B
:1001000040820395053009F40027FF91EF91019398
:1001100005E08824992431904190830C941C0A9521
:10012000D1F705E0A02EBB2403D0382C492C08952C
:100130003324441801E1881C991C0A9541F4B694B3
:10014000A7943A144B0410F0810C901C0895331CB2
:10015000441C3A184B0820F43A0C4B1C8894EBCF03
:100160000894E9CF01E80CBD02E00ABD03E003BF3B
:1001700002BE0DE709BD00E109BF089500E00CBD16
:1001800008952FB650682FBE1895BA9AC29AB89A99
:10019000C098089500927D0000927C0000927E003D
:1001A00000C003E011E0412E17E0ECE7F0E03190F1
:1001B000F8940000C098330C46BA08F046BA1A9575
:1001C000C1F7330CC09817E046BA20F431900A9575
:1001D00089F704C046BA31900A9569F7C0987894B7
:1001E000089506E900937D0000927C0000927E0055
:1001F000D8CF06E900927D0000937C0000927E003B
:10020000D0CF06E900927D0000927C0000937E0032
:10021000C8CF06E900937D0000937C0000937E0028
:10022000C0CF06E900937D0000927C0000937E0021
:10023000B8CF06E900937D0000937C0000927E0019
:10024000B0CF06E900927D0000937C0000937E0011
:10025000A8CFE6E6F0E04CDF05E0330C441C0A953D
:10026000E1F7832C942C07E1A02EBB2461DF809260
:100270006000909261000895E1E7F0E039DF80903E
:100280006400909065003818490810F43324442421
:1002900004E03014400620F00FEF302E03E0402E33
:1002A00006E0330C441C0A95E1F7832C942C00E300
:1002B000A02EBB243DDF80926200909263000895DF
:1002C00056FD0AC0809060009090610000E619E041
:1002D0008016910608F01FC05064809060009090D6
:1002E000610009ED19E08016910650F080906200DF
:1002F0009090630001E110E08016910668F09EDEA8
:10030000809062009090630008EC10E080169106E7
:1003100008F094DE99DE08955F7B0EBCFCCF56FF9B
:1003200001C0089502E300937D0006E900937C007C
:1003300000927E0036CF04E600937D0002E3009336
:100340007C0000927E002DCFF89400241124139499
:100350001CDF552700E806BD06BC02E00EBF0FE516
:100360000DBF5DDEBFDE96DEFDDE08DF369A7894D7
:0C037000D9DF3699FECF71DEA3DFFBCF92
:00000001FF
