:020000020000FC
:1000000095C11895189518951895189518951895DF
:1000100018951895B0C01895189518951895C19809
:10002000B99A0FBC0EBC662701E600BF02E007BD0F
:1000300007B500FFFDCF06E007BD089534B045B019
:10004000483019F403E007B904C04A3011F402E063
:1000500007B9369A403031F0493030F0493011F06C
:100060004A3021F04395089522D1FCCF33D14FEF90
:10007000F9CFF894BC98BB98442706E806B903E08A
:1000800007B9E3E7F0E00BD03092660040926700DA
:1000900002E007B9E8E6F0E002D0349A08950AE0F9
:1000A0000F93EF93FF93369A3699FECF34B045B055
:1000B0000CD0FF91EF910F910A9591F70895F89464
:1000C00000926800009273000895EF93FF930191EE
:1000D000102F110FE10FF01D319240820395053072
:1000E00009F40027FF91EF91019305E088249924FA
:1000F00031904190830C941C0A95D1F705E0A02E15
:10010000BB2403D0382C492C08953324441801E132
:10011000881C991C0A9541F4B694A7943A144B0490
:1001200010F0810C901C0895331C441C3A184B08A5
:1001300020F43A0C4B1C8894EBCF0894E9CF01E8EB
:100140000CBD02E00ABD03E003BF02BE0DE709BD1E
:1001500000E109BFCC24089503E0902E08EE802E24
:10016000BB24A0906000D1DFD82C0895F5DFED2CE2
:1001700000E00CBD08952FB66068EA9411F02FBE20
:100180001895ED2C5C1102C02FBE1895C51618F0FD
:10019000CA942FBE1895C3942FBE189508E0302E30
:1001A000402E502EF89400917F00000FC09A10F45A
:1001B00000000000C0983A94C1F700917E00000F43
:1001C000C09A08F0C0980000C0984A94C1F7C09A3D
:1001D000000000000000C0980000C09A0000C09815
:1001E000000000000000C09A0000C098000000005D
:1001F0000000C09A0000C098000000000000C09AF3
:100200000000C098000000000000C09A0000C098E4
:10021000000000000000C09A0000C098000000002C
:100220000000C09A0000C09800000000000008957F
:1002300000927E0000927F0000928000AFCF0FEF0F
:1002400000937E0000927F0000928000A7CF08EC10
:1002500000937E0000937F00009280009FCF0FEFFD
:1002600000927E0000927F000093800097CF0FEFF6
:1002700000937E0000937F00009380008FCF0FEFEC
:1002800000937E0000927F000093800087CF04E6F9
:1002900000937E0000937F00009280007FCF0FEFDD
:1002A00000927E0000937F000093800077CFE8E605
:1002B000F0E00BDF06E0330C441C0A95E1F7832CD9
:1002C000942C07E1A02EBB2420DF80926300909243
:1002D00064000895E3E7F0E0F8DE80906600909017
:1002E00067003818490810F4382C492C06E0330C04
:1002F000441C0A95E1F7832C942C02EFA02EBB241A
:1003000004DF80926500089567FF0BC06F771EB50C
:10031000009163000C1529F028F41F3F11F013958C
:100320001EBD08951030E9F31A95FACFF894BA9AE1
:10033000C29AB89A002411241394552700E806BDE8
:1003400006BC02E00EBF0FE50DBF69DEB8DE91DE30
:10035000F6DE0CDF369A78946BDF3699FECF6EDED0
:04036000D3DFFBCF1D
:00000001FF
